:020000040800F2
:10000000701200209501000883160008DF15000813
:100010008116000855030008711A0008000000004E
:10002000000000000000000000000000FD000008CB
:100030008F0300080000000041010008DD160008E1
:10004000AF010008AF010008AF010008AF010008D0
:10005000AF010008AF010008AF010008AF010008C0
:10006000AF010008AF010008AF0100085903000804
:10007000AF010008AF010008AF010008AF010008A0
:10008000AF010008AF010008AF0100080000000048
:10009000000000000000000000000000AF010008A8
:1000A0000000000000000000000000000000000050
:1000B000AF010008AF010008AF010008AF01000860
:1000C000AF010008AF010008AF010008AF01000850
:1000D000AF010008AF010008AF010008AF01000840
:1000E000AF010008AF010008DFF80CD000F088F87D
:1000F00000480047DD1A000870120020224B1968E2
:100100000868B0E8F00F80F30988BFF36F8F4FF0F5
:10011000000080F311884EF00D0E704700000000C3
:1001200006480068006880F3088862B661B6BFF3CD
:100130004F8FBFF36F8F00DF00BF00BF08ED00E0FF
:10014000EFF30980BFF36F8F0F4B1A6820E9F00FB0
:10015000106008B54FF0500080F31188BFF34F8F47
:10016000BFF36F8F02F080F84FF0000080F311882A
:10017000BDE8084019680868B0E8F00F80F3098806
:10018000BFF36F8F704700BF18000020EFF30580AA
:10019000704700000648804706480047FEE7FEE734
:1001A000FEE7FEE7FEE7FEE7FEE7FEE7FEE7FEE727
:1001B00045170008E900000840EA01039B0703D047
:1001C00009E008C9121F08C0042AFAD203E011F896
:1001D000013B00F8013B521EF9D27047D2B201E058
:1001E00000F8012B491EFBD270470022F6E710B53C
:1001F00013460A4604461946FFF7F0FF204610BD95
:10020000064C074D06E0E06840F0010394E8070063
:1002100098471034AC42F6D3FFF76AFFBC250008BC
:10022000DC25000870B5044600688168C943C90729
:100230001CD1816821F00101816000F057FC054666
:100240000FE000BF00F052FC401B022809D9A06A51
:1002500040F01000A062E06A40F00100E06201207E
:1002600070BD20688068C043C007EBD0002070BD1F
:1002700010B50146406A826A12F0500F05D0006A3C
:10028000026BBDE8104008461047816A41F40071D6
:10029000816201688968C1F3424107290CD1C168B4
:1002A00051B9816A21F480718162816AC90403D4E1
:1002B000816A41F00101816200F0EAF810BD10B5D9
:1002C000406A816A41F040018162C16A41F00401E3
:1002D000C16200F0DFF810BD10B5406A00F0D9F837
:1002E00010BD0000F8B5002604460096006881683D
:1002F000C943C90728D0816841F0010181601348D2
:1003000013490068B0FBF1F000E0401E00900028A7
:10031000FBD100F0EBFB054611E000BF00F0E6FB6F
:10032000401B02280BD9A06A40F01000A062E06ACE
:1003300040F00100E06284F824600120F8BD2068EC
:100340008068C043C007E9D10020F8BD1400002038
:1003500040420F00FEE70000014800F0D9B900005C
:100360003C01002030B590F840500124AC40C56BF2
:100370006C60046863604368102B036803D0996065
:100380000068C26030BD9A600068C16030BD7047CF
:1003900070470000F8B50024009490F8242025460A
:1003A000012A12D0012280F824204A681F23072A3C
:1003B0000DD20668776B521E02EB820293409F4378
:1003C0000B6893401F43776319E00220F8BD06686D
:1003D0000D2A0AD2376BD21F02EB820293409F4351
:1003E0000B6893401F43376309E0F76A0D3A02EB4D
:1003F000820293409F430B6893401F43F7620A6851
:10040000072306680A2A0AD3F7680A3A02EB42026F
:1004100093409F438B6893401F43F76008E0376920
:1004200002EB420293409F438B6893401F43376126
:100430000A68102A01D0112A20D1124B02689A4270
:1004400017D193681B0219D4936843F40003936097
:100450000968102912D10C490C4A0968B1FBF2F164
:1004600001EB8101490000E0491E00910029FBD108
:1004700004E0816A41F020018162012480F8245067
:100480002046F8BD002401401400002040420F0027
:1004900070477047704700002DE9F0414FF00007AA
:1004A00004003D467ED0A06A002628B9E66284F8A2
:1004B0002460204600F07EF82046FFF7B3FEA16AD4
:1004C000C90600D420B1A06A40F01000A06269E023
:1004D000A16A21F4885141F00201A1626268E169D8
:1004E000E3680A4347EA43010A43A1684FF480776F
:1004F000B94209D0012907D05FF00001D4F814C037
:10050000BCF1010F02D00AE03946F7E7F3B1A36A64
:1005100043F02003A362E36A43F00103E36223682C
:10052000D3F804C02CF4694C4CEA010CC3F804C0A5
:1005300021688B68DFF870C003EA0C0313438B60FB
:10054000A168B9420BD0012909D00CE0DFF85CC0EA
:10055000A3690CEB43330B4343F40061DFE7218ACB
:100560000D05A5F580152168CB6A23F470032B4394
:10057000CB62216889680E4B1940914208D1E6622E
:10058000A16A21F0020141F00101A162BDE8F08100
:10059000A06A20F0020040F01000A062E06A40F083
:1005A0000100E0620120F1E7FDF7E1FF00E0FFFF5D
:1005B000FE0E1FFF70B586B000250646009501951A
:1005C000029503950068194988422DD11849886918
:1005D00040F400708861886900F4007004908869B4
:1005E00040F0040088618869694600F004000490C6
:1005F0000F200090032001900E4800F099F90F4C55
:100600000D48C4E900058020C4E902504000206183
:100610008000C4E905052046E56100F023F908B132
:10062000FFF7B6FE3462666206B070BD002401407A
:100630000010024000080140080002403C01002078
:100640002DE9F041044690F8240016460F46012893
:100650000ED0012084F824002046FFF743FE050059
:100660004FF0000006D084F824002846BDE8F08151
:100670000220FBE7A16A40F60162914341F48071D8
:10068000A162A16A21F48011A1622168496849052B
:1006900005D5A16A21F4005141F48051A162A16AFB
:1006A000C90404D5E16A21F00601E16200E0E062DC
:1006B00084F82400216A13488862216A1248C862BB
:1006C000216A1248086321686FF002000860206800
:1006D000816841F480718160216833463A464C312B
:1006E000206A00F0EDF820688168C1F342410729D3
:1006F000816803D041F480118160B6E741F4A00124
:10070000FAE7000071020008D9020008BF020008E1
:100710002DE9F05FC16B0C6801680B68D0F840C030
:10072000042202FA0CF2494DDFF824A1494E4A4F47
:10073000DFF828B1DFF828E122422CD05A072AD569
:100740000A68920603D40A6822F004020A6001686B
:10075000A94201D1042219E0514501D1402215E0FE
:10076000B14202D14FF4806210E0B94202D14FF49D
:1007700080420BE0594502D14FF4802206E07145DA
:1007800002D14FF4800201E04FF080622F49083916
:100790004A60C16A3BE04FF0020808FA0CF818EA18
:1007A000040F4FF000094FF0010235D05FEA837863
:1007B00032D50B689B0605D40B6823F00A030B6047
:1007C00080F821200168A94201D1022219E0514597
:1007D00001D1202215E0B14202D14FF4007210E0A5
:1007E000B94202D14FF400520BE0594502D14FF407
:1007F000003206E0714502D14FF4001201E04FF0E3
:100800000072124908394A6080F82090816A0029F4
:100810001AD0BDE8F05F0847082505FA0CF5254217
:1008200012D01B0710D50B6823F00E030B6090F855
:100830004010C36B02FA01F15960826380F82120F5
:1008400080F82090016BE2E7BDE8F09F08000240CD
:100850001C000240300002404400024058000240A8
:100860006C00024030B528B308C81349142219445B
:10087000B1FBF2F18900C163104981630221417724
:100880001A6843F6F0718A43D0E900142143D0E995
:1008900002452C432143046921434469214384696F
:1008A00021431143196000214163012242770177FE
:1008B000084630BD012030BDF8FFFDBF00000240FA
:1008C00070B5044690F82000002501280CD00120C6
:1008D00084F8200094F821600020012E06D084F8CE
:1008E00020000225284670BD022070BD022684F833
:1008F0002160A0632068066826F001060660204695
:10090000FFF730FDE06A00282068016802D041F05E
:100910000E0106E021F0040101602068016841F049
:100920000A0101602068016841F001010160D9E716
:100930002DE9F84FDFF890A100220AF1040B1446CC
:1009400001274FF00F090BF1040E00BF0B6807FAE7
:1009500004F52B40AB4274D1DFF870C14E68A6EBB2
:100960000C0866452BD00DDC032E34D005DC36B3E5
:10097000012E19D0022E2FD11BE0112E16D0122ECF
:100980002AD119E0B8F5881F19D006DCB8F5803FE8
:1009900015D0B8F5801F1FD111E0B8F5001F0ED09B
:1009A000B8F5041F18D10AE0CA6815E0CA68121D1C
:1009B00012E0CA6808320FE0CA680C320CE08A689C
:1009C0002AB1012A4FF0080203D0456104E0042255
:1009D00002E0056100E00022FF2B01D8064601E09D
:1009E00000F104064FEA840501D9A5F12005D6F8E7
:1009F00000C009FA05F82CEA080C02FA05F54CEAE1
:100A0000050CC6F800C04D68ED0057D5304DAE69F5
:100A100046F00106AE61AD6924F0030605F001055C
:100A200000952C4D06EB050CDCF80850A6074FEAA4
:100A3000167809FA08F6B543274EB04202D10026CF
:100A400010E03BE0254EB04201D101260AE0244EE1
:100A5000B04201D1022605E0224EB04201D1032668
:100A600000E0042606FA08F62E43CCF808604D682C
:100A7000DAF80060ED03554601D51E4300E09E43C1
:100A80002E604D68DBF80060AD035D4601D51E4366
:100A900000E09E432E604D68DEF80060ED02754672
:100AA00001D51E4300E09E432E604D68AD020E4D01
:100AB0002E6801D51E4300E09E432E60641C102C5E
:100AC000FFF444AFBDE8F88F0004014000001110AE
:100AD000001002400000014000080140000C0140ED
:100AE00000100140001401400C04014001488068DE
:100AF0007047000008000020024881680278114415
:100B00008160704708000020074810B5016841F077
:100B100010010160032000F079F80F2000F006F8C2
:100B200000F024F8002010BD0020024070B50D4DEB
:100B300004464FF47A712878B1FBF0F00A4909684D
:100B4000B1FBF0F000F070FB48B9102C07D2002286
:100B50002146501E00F03AF800206C6070BD012064
:100B600070BD000008000020140000200F4808B5E8
:100B7000816941F001018161816901F00101009108
:100B8000C16941F08051C161C069002200F080500C
:100B900000900F21901E00F019F80548416821F0DF
:100BA000E06141F08061416008BD0000001002403A
:100BB0000000014000F01F02012191404009800027
:100BC00000F1E020C0F8001170470000F0B40E4BB7
:100BD0001B680C46C3F30223C3F10705042D00D99B
:100BE0000425191D072901D2002300E0DB1E012680
:100BF00006FA05F1491E214099409E40761E164096
:100C00003143F0BC00F03EBD0CED00E0064900F0C1
:100C1000070208684FF6FF03184040EA0220034A23
:100C200010430860704700000CED00E00000FA057A
:100C30002DE9F84305460078314CC00754D0E069EF
:100C40000026C00008D4E06940F08050E061E0690F
:100C5000012600F0805000902A480168C90512D48E
:100C60000168804641F480710160FFF73FFF07464D
:100C700005E000BFFFF73AFFC01B642823D8D8F86F
:100C80000000C005F6D5206A10F4407021D0A98874
:100C900001F4407181421CD0206A1B49012220F4DA
:100CA00040700A6000220A602062C00711D0FFF77E
:100CB0001DFF074641F2883808E000BFFFF716FF26
:100CC000C11B414502D90320BDE8F883206A800793
:100CD000F4D5206A696820F44070084320621EB190
:100CE000E06920F08050E0612878800705D56068D1
:100CF000A96820F44040084360600020E4E7000059
:100D00000010024000700040400442422DE9F047CC
:100D1000DFF8548105460E46D8F8000000F00700C1
:100D2000B0420CD2D8F8001021F007013143C8F8C6
:100D30000010D8F8000000F00700B0426FD128681A
:100D40004A4C810712D5400703D5606840F4E06043
:100D500060602878000703D5606840F460506060E8
:100D60006068A96820F0F000084360602878C00738
:100D700044D06868012816D02168022816D0890757
:100D800000294CDA616821F0030101436160FFF73B
:100D9000ADFE6968074641F2883001290ED002296C
:100DA000814618D026E021688903E9E78901E7E751
:100DB000FFF79CFEC11B494501D918E081466068D8
:100DC000C0F381000128F3D118E000BFFFF78EFEC9
:100DD000C11B49450BD86068C0F381000228F5D1DA
:100DE0000CE000BFFFF782FEC11B494502D903207A
:100DF000BDE8F087606810F00C0FF3D1D8F8001050
:100E0000404601F00701B1420BD9016821F007010A
:100E100031430160006800F00700B04201D00120BA
:100E2000E6E72878400705D56068E96820F4E060C7
:100E3000084360602878000706D56068296920F4B7
:100E4000605040EAC100606000F036F86168084A0E
:100E5000C1F30311515CC840064908600F20FFF739
:100E600065FE0020C4E700000020024000100240A0
:100E70008C250008140000200448054900684968D2
:100E8000044AC1F30221515CC8407047140000209D
:100E9000001002409C250008044805490068496884
:100EA000044AC1F3C221515CC840704714000020BD
:100EB000001002409C25000812A185B00FC98DE8E2
:100EC0000F0014A0144A006804905168134801F000
:100ED0000C03042B10D0082B0ED1C1F38343C9039C
:100EE0001DF803000AD5516804AAC1F34041515CC2
:100EF0000A4A5043B0FBF1F005B070470849484337
:100F0000FAE7000002030405060708090A0B0C0DA6
:100F10000E0F1010010200000010024000127A00B3
:100F200000093D002DE9F84F04460078B94DC0078F
:100F300048D06868C0F38100012807D06868C0F312
:100F40008100022809D16868C00306D5286880039B
:100F500038D5606800286FD034E06068B0F5803F15
:100F60000BD010B1B0F5A02F11D0286820F480303C
:100F70002860286820F4802002E0286840F480304F
:100F80002860606888B1FFF7B1FD064609E028686F
:100F900040F480202860F0E7FFF7A8FD801B64285C
:100FA00075D828688003F7D50CE0FFF79FFD06464B
:100FB00005E000BFFFF79AFD801B6428F0D8286881
:100FC0008003F7D42078944E80074FF001094FF04A
:100FD00000083BD5686810F00C0F07D06868C0F3B4
:100FE0008100022809D16868C00306D428688007F8
:100FF00014D5206901281FD110E02069B0B1C6F8CE
:101000000090FFF773FD074605E000BFFFF76EFD98
:10101000C01B0228C4D828688007F7D528686169F2
:1010200020F0F80040EAC10028600FE0C6F8008018
:10103000FFF75CFD074606E0E9E000BFFFF756FD5D
:10104000C01B022823D828688007F7D4207800071F
:101050002CD57248A169D9B1C0F80090FFF746FDC0
:10106000074604E0FFF742FDC01B02280FD8686A5C
:101070008007F7D56A484FF4FA510068B0FBF1F0E9
:10108000009000BF0098411E0091FAD20EE080E06F
:10109000C0F80080FFF72AFD074604E0FFF726FDB1
:1010A000C01B022875D8686A8007F7D420784007EB
:1010B00060D5E8690027C00008D4E86940F0805096
:1010C000E861E869012700F0805000905548016808
:1010D000C90513D40168834641F480710160FFF7AC
:1010E00005FD824606E000BFFFF700FDA0EB0A0009
:1010F00064284ED8DBF80000C005F5D5E06801286B
:101100000AD008B1052813D0286A20F0010028620F
:10111000286A20F0040002E0286A40F001002862FA
:10112000E06841F2883B98B1FFF7E0FC82460BE0B3
:10113000286A40F004002862EEE700BFFFF7D6FC03
:10114000A0EB0A0159455AD8286A8007F6D50CE069
:10115000FFF7CCFC824605E0FFF7C8FCA0EB0A01D4
:1011600059454CD8286A8007F6D41FB1E86920F0A9
:101170008050E861E06988B36968C1F381010229A0
:1011800045D00228C6F8608004D0FFF7AFFC0446C3
:1011900038E034E0FFF7AAFC074604E0FFF7A6FCBE
:1011A000C01B02282BD828688001F7D4206AB0F52C
:1011B000803F05D16868A16820F40030084368606A
:1011C000D4E908010843696821F474110843686090
:1011D000C6F86090FFF78AFC044606E015E000BF01
:1011E000FFF784FC001B022809D828688001F7D586
:1011F0000BE000BFFFF77AFC001B022802D9032096
:10120000BDE8F88F28688001F4D40020F8E70120B9
:10121000F6E7000000100240000042428004424213
:10122000140000200070004010B5401EB0F1807F17
:1012300001D3012010BD4FF0E02460610F21601741
:1012400000F020FA0020A06107202061002010BDDE
:1012500030B590F83C20012A20D0012280F83C20B3
:10126000022380F83D3003685C6824F070045C6001
:1012700003685C680D682C435C6003689C6824F01C
:1012800080049C6003689C6849680C439C6080F8FB
:101290003D20002180F83C10084630BD022030BDC2
:1012A00010B586B000210091019102910391006870
:1012B000B0F1804F2BD11748816941F00401816161
:1012C000816901F004010491816941F008018161A3
:1012D0008069022400F0080004904FF40040CDE93A
:1012E000000469460C480394FFF722FB0820CDE96F
:1012F0000004694609480394FFF71AFB084841684F
:1013000021F4407141F0E06141F48071416006B028
:1013100010BD00000010024000080140000C014018
:101320000000014070B5044690F83C000D460128CD
:101330000DD0012684F83C60022084F83D0042B1C3
:10134000042A18D0082A2AD00C2A4DD139E00220CC
:1013500070BD206800F044FA2068816941F00801FE
:1013600081612068816921F00401816120688169BF
:101370002A69114311E0206800F048FA2068816969
:1013800041F4006181612068816921F4806181619B
:10139000206881692A6941EA0221816124E020688C
:1013A00000F04CFA2068C16941F00801C161206871
:1013B000C16921F00401C1612068C1692A69114332
:1013C00011E0206800F051FA2068C16941F4006121
:1013D000C1612068C16921F48061C1612068C1696F
:1013E0002A6941EA0221C16184F83D60002084F845
:1013F0003C0070BD10B5040003D094F83D0010B15E
:1014000007E0012010BD002084F83C00204600F0D9
:101410000DF8022084F83D00211D206800F0B6F987
:10142000012084F83D00002010BD000008B50068D0
:10143000B0F1804F08D10548C16941F00101C16197
:10144000C06900F00100009008BD000000100240DB
:1014500070B5040004D094F83900002510B106E0FE
:10146000012070BD84F83850204600F023F8242075
:1014700084F839002068C16821F40051C160204619
:1014800000F00CFA2068016921F4904101612068A4
:10149000416921F02A0141612068C16841F400518D
:1014A000C160E563202084F8390084F83A00002008
:1014B00070BD000030B585B0002400940194029402
:1014C000039400681449884224D11448816941F486
:1014D00080418161816901F480410491816941F019
:1014E0000401816180690E4D00F0040004904FF406
:1014F0000070009002200190032003906946284666
:10150000FFF716FA2815CDE900046946284602942B
:10151000FFF70EFA05B030BD003801400010024060
:10152000000801402DE9F843044690F839001F46B1
:1015300016460D46202850D1A5B19EB194F838002A
:1015400001284AD0012084F838004FF00008C4F880
:101550003C80212084F83900FFF7C8FAA684814630
:10156000E68426E00120BDE8F883E08C401EE0849C
:10157000A0684B46B0F5805F4FF000024FF080014D
:101580002046009703D000F041FAE8B90DE000F0E2
:101590003DFAC8B928882168C0F30800486020696E
:1015A00008B16D1C05E0AD1C03E0216815F8010BC6
:1015B0004860E08C0028D8D14B46002240212046CC
:1015C000009700F023FA08B10320CCE7202084F82C
:1015D000390084F838800020C5E70220C3E7FEE721
:1015E0003EB500240D480094019402948460C460C8
:1015F000094944610160012505614FF4602144609F
:10160000C161FEF749FFCDE90045694603480294F0
:10161000FEF7C0FE3EBD0000002401408C0000200B
:1016200010B58AB0002407941C2168460894FEF780
:10163000DCFD12484FF08041C0E900148460C460B2
:1016400004618461FFF7D6FE079407A90B4808944C
:10165000FFF7FEFD6020CDE90004029400226946F8
:1016600006480494FFF75EFE042269460348FFF72C
:1016700059FE0248FFF714FE0AB010BDBC0000205E
:10168000FEE770470907090E002806DA00F00F0090
:1016900000F1E02080F8141D704700F1E02080F890
:1016A00000147047012000F07DFAFBE70649042290
:1016B00001F11000FEF7C4FF04A000F0DBF90120E7
:1016C00000F070FAF2E700007C00002061616161C7
:1016D00061616161616161610000000010B5FFF747
:1016E0000BFABDE8104000F069BA30B593B028217C
:1016F0006846FEF77AFD14210AA8FEF776FD00245D
:10170000022501200F9404900095102005904FF4BD
:10171000C010CDE908401194109407956846FFF772
:1017200001FC0F200A90CDE90B540D9401210AA869
:101730000E94FFF7EBFA0FA80F951194FFF778FAC4
:1017400013B030BD0D48016841F0010101604168EE
:101750000B4A1140416001680A4A1140016001686A
:1017600021F480210160416821F4FE0141604FF4C1
:101770001F0181600449C0030860704700100240E7
:101780000000FFF8FFFFF6FE08ED00E070B502680C
:101790004FF08046104B114CB04203D0984201D01C
:1017A000A04205D122F070054A682A43B04203D016
:1017B000984201D0A04203D122F44073CA681A4370
:1017C00022F080034A691A4302608A68C26209688B
:1017D00081620121416170BD0004004000080040A9
:1017E00030B5026A22F001020262036A446882692B
:1017F00022F073050A682A4323F002058B684460CF
:101800002B43826149684163036230BD30B5026A8F
:1018100022F010020262046A426883690D6823F4B0
:10182000E64343EA05238D6824F0200444EA0514C6
:101830004260836149688163046230BD30B5026AE9
:1018400022F480720262046A4368C26924F400745C
:1018500022F073050A682A438D68436044EA052430
:10186000C2614968C163046230BD30B5026A22F4C6
:1018700080520262046A4268C3690D6823F4E64339
:1018800043EA05238D6824F4005444EA0534426099
:10189000C36149680164046230BD00002DE9F04174
:1018A000044600680169E26821F440511143016176
:1018B0002169A0680843616908432168CA6841F248
:1018C0000C639A430243CA6020684169A26921F40B
:1018D0004071114341614C49206864253226884299
:1018E0003CD1FFF7D9FA00EBC00101EB00106168B1
:1018F0008900B0FBF1F7FFF7CFFA00EBC00101EB75
:1019000000106168B0468900B0FBF1F0B0FBF5F063
:101910006FF01801484307EB800106EB0110B0FBA4
:10192000F5F000F0F006FFF7B7FA00EBC00101EBAD
:10193000001061688900B0FBF1F0B0FBF5F006EB38
:101940000016FFF7A9FA00EBC00101EB0010616877
:101950008900B0FBF1F7FFF79FFA3BE0FFF78CFA45
:1019600000EBC00101EB001061688900B0FBF1F7EA
:10197000FFF782FA00EBC00101EB00106168B0468E
:101980008900B0FBF1F0B0FBF5F06FF018014843AF
:1019900007EB800106EB0110B0FBF5F000F0F0065C
:1019A000FFF76AFA00EBC00101EB001061688900E3
:1019B000B0FBF1F0B0FBF5F006EB0016FFF75CFAB8
:1019C00000EBC00101EB001061688900B0FBF1F78A
:1019D000FFF752FA00EBC00101EB001061688900CB
:1019E000B0FBF1F0B0FBF5F06FF01801484307EBE6
:1019F000800108EB0110B0FBF5F0216800F00F004A
:101A000030448860BDE8F081003801402DE9F041A4
:101A1000984617460E460446069D1DE0681C1BD0DE
:101A20002DB1FFF763F8A0EB0800A84214D9206895
:101A3000C16821F4D071C1602068416921F00101C1
:101A40004161202084F8390084F83A00002084F8AD
:101A500038000320BDE8F0812068006836EA000005
:101A600004D00020B842D9D00020F3E70120F9E7E4
:101A7000FEE70000014A024900F013B8C51A000849
:101A80007800002002E008C8121F08C1002AFAD11D
:101A900070477047002001E001C1121F002AFBD1EE
:101AA00070472DE9F04116460F460446002503E035
:101AB0003946B047641C6D1C20780028F8D12846B0
:101AC000BDE8F08113B54FF6FF7301226946024865
:101AD000FFF728FD00981CBDFC0000208CB0FFF72C
:101AE00013F8FFF702FE2748816941F00401816184
:101AF000816901F004010A91816941F00801816165
:101B0000816901F008010A91416941F001014161D7
:101B10004069002200F001000A9005210B20FFF728
:101B200055F80B20FFF746F8FFF75AFDFFF778FD51
:101B3000164815490C2201604FF4E1314160002143
:101B40008160C160C0E904128161C161FFF780FC5E
:101B500014220F496846FEF72FFB0021684600F06B
:101B600037F80C4C0A4914222060143105A8FEF7FE
:101B700023FB002105A800F02BF8606000F019F8A5
:101B8000FEE700000010024000380140FC00002089
:101B9000642500080000002001460020842900D0B0
:101BA000C81C704710B500B9012000F0FBFA0020F6
:101BB00010BD10B500F01CFB002010BD10B500F0EA
:101BC000FDFB012803D0BDE8104000F0B5BB10BDFF
:101BD0003EB504460D46B0F90800FFF7DDFF02A947
:101BE000CDE90001208A2B4682B2D4E9001000F032
:101BF000B9FB012801D000203EBD02983EBD000087
:101C00002DE9F041184C0F460546E6682068001D96
:101C100000F012FA38B9206890F82C1001208840A2
:101C2000216981432161681C07D137B12168BDE872
:101C3000F0410E48091D00F037BA20683544B5421E
:101C40004560216805D2A06BBDE8F041091D00F098
:101C500013BA606B091D00F00FFAA06A854200D22A
:101C6000A562BDE8F0810000180000205C020020A1
:101C70002DE9F041054600F023FA2E4CA068401CE7
:101C8000A06020682C4F10B1606940B32DE0256042
:101C9000A068012829D1002606EB860007EB80000A
:101CA00000F0DCF9761C072EF6D323488C3000F0C8
:101CB000D5F92148A03000F0D1F91F48B43000F028
:101CC000CDF91D48C83000F0C9F91B48DC3000F0E0
:101CD000C5F919488C3060631430A06305E02068B2
:101CE000E96AC06A884200D82560606A401C606268
:101CF000E96A0120226988401043206101EB8100DC
:101D000007EB8000291D00F0CFF900F0F9F96069B8
:101D100000280CD02068E96AC06A884207D20749C7
:101D20004FF080500860BFF34F8FBFF36F8FBDE857
:101D3000F0810000180000208001002004ED00E088
:101D400070B5114E114C17E000F086FA3068B8B14A
:101D500000F0A6FB00F0B4F9F068C568281D00F09B
:101D60006BF9A068401EA0606068401E606000F0D3
:101D7000C7F9284600F00CF860680028E4D170BD6F
:101D800000F08EFBF8E70000480200201800002059
:101D900010B50446006B00F0C7F92046BDE81040BE
:101DA00000F0C2B910484FF44061420706D0C01D90
:101DB0000D4920F00700411AC1F540610B4A00238C
:101DC0000144C2E900030839103A21F0070111600B
:101DD0004B600B600B1AC0E9001393604FF000409A
:101DE0005360D06070470000700200206400002043
:101DF000074C4FF08056074DFFF7A2FF20680128DF
:101E0000FAD92E60BFF34F8FBFF36F8FF4E7000056
:101E10008001002004ED00E02DE9F0479A46DDE95D
:101E2000098481466FF00303206B03EB82021044A8
:101E3000089D20F00706700707D0502080F3118816
:101E4000BFF34F8FBFF36F8FFEE723180A5C83F851
:101E500034200A5C12B1401C1028F6D3002784F805
:101E60004370072D00D30625E562C4E91157201DF4
:101E700000F0FFF804F1180000F0FBF82461C5F150
:101E800007006462A061E76484F8507052464946D6
:101E9000304600F0BFF82060B8F1000F01D0C8F85C
:101EA0000040BDE8F087000030B5114900E0114660
:101EB0000A688242FBD34B685C18844203D14068B5
:101EC00018444860084643681C18944209D1084CDD
:101ED000103C2468A24209D052681A4442600A6841
:101EE00012680260814200D0086030BD0460F9E7EA
:101EF000640000200648416B096829B1416BC9683C
:101F0000C9684968816270474FF0FF31FAE7000005
:101F10001800002008484068401C4FF0500080F333
:101F2000118804D0BFF34F8FBFF36F8FFEE7BFF36D
:101F30004F8FBFF36F8FFEE76C0000202DE9F0415B
:101F40000546002700F088F9314E306808B9FFF7E0
:101F500029FFF06805424BD1C5B3083568070ED09C
:101F600005F00700C0F108000544680707D05020BD
:101F700080F31188BFF34F8FBFF36F8FFEE72DB350
:101F80007068854234D82248103001460C6801E060
:101F900020460C466168A94202D221680029F7D187
:101FA00031688C4224D00768216801606068083776
:101FB000411B10290FD96019420708D0502080F327
:101FC0001188BFF34F8FBFF36F8FFEE710E04160C2
:101FD0006560FFF769FF61687068401A7060B268F9
:101FE000904200D2B060F06801430020C4E90001D3
:101FF00000F056FA780707D0502080F31188BFF31D
:102000004F8FBFF36F8FFEE73846BDE8F0810000C9
:102010005400002010B5031F4FF080741C601B1F7C
:1020200021F001011960191F024B0B60143940386F
:102030000A6010BD151F0008D0E9013201699A60DD
:10204000D0E901235A604A68824201D182684A601D
:10205000002202610868401E0860704700F1080114
:102060004FF0FF32C0E90112C1600161002101603F
:10207000704700210161704730B50B685A1C02D0CF
:1020800000F1080202E0026904E022465468256873
:102090009D42FAD953684B6099608A60516008612B
:1020A0000168491C016030BD42684A6093688B60DA
:1020B00093685960916008610168491C016070472C
:1020C000502080F31188BFF34F8FBFF36F8F0A4901
:1020D0004868401C486001280CD10848006810F08E
:1020E000FF0F07D0502080F31188BFF34F8FBFF34D
:1020F0006F8FFEE7704700006C00002004ED00E0E9
:102100000849486828B1401E486001D180F3118811
:102110007047502080F31188BFF34F8FBFF36F8F4C
:10212000FEE700006C00002070B5002827D0144D99
:10213000A0F108046168E868014207D1502080F3EB
:102140001188BFF34F8FBFF36F8FFEE722683AB15C
:10215000502080F31188BFF34F8FBFF36F8FFEE7DE
:102160008143616000F078F86068696808446860DD
:102170002046FFF799FEBDE8704000F091B970BDB0
:102180005400002006484FF47A710068B0FBF1F16A
:102190004FF0E020491E41610721016170470000B6
:1021A0001400002010B5020014D00F48006B38B1A5
:1021B000502080F31188BFF34F8FBFF36F8FFEE77E
:1021C00000F04AF800211046FFF71AFD00F068F908
:1021D000002807D105494FF080500860BFF34F8FAA
:1021E000BFF36F8F10BD00001800002004ED00E069
:1021F0001CB515480024CDE900402346802213A1D8
:10220000144800F0AFF8012809D0401C1AD1502022
:1022100080F31188BFF34F8FBFF36F8FFEE750201D
:1022200080F31188BFF34F8FBFF36F8F06484FF0D5
:10223000FF312C38816201214161C460BDE81C403E
:1022400000F040B81CBD00004400002049444C454B
:1022500000000000F11D00080248016B491C0163E9
:1022600070470000180000201448016B11B10121D3
:10227000C16170470021C1610169B1FA81F1C1F109
:102280001F0101EB81020E4951F822306BB101EBC5
:10229000820101F108034A6852684A609A4201D1FA
:1022A00052684A60D16801607047502080F31188FD
:1022B000BFF34F8FBFF36F8FFEE7000018000020C1
:1022C000800100201CB5194908780190FF20087092
:1022D00008788DF800009DF80000154A00F05000C5
:1022E00010700720906005E09DF800305B008DF8CD
:1022F0000030401E9DF800301B06F5D4000200F4AB
:10230000E0609060019808700A48016841F470012B
:102310000160016841F070410160FFF733FF002068
:102320005060FDF7FDFE00201CBD000000E400E051
:102330006C00002020ED00E010B5502080F31188E3
:10234000BFF34F8FBFF36F8F00F046F818B1044909
:102350004FF080500860002080F3118810BD00000D
:1023600004ED00E02DE9FF5F8346DDE90E87994625
:1023700016468A469000FFF7E1FD05001AD054206A
:10238000FFF7DCFD040012D025630021CDE90241F6
:10239000CDE900874B46324651465846FFF73CFD93
:1023A0002046FFF765FC012004B0BDE8F09F2846F9
:1023B000FFF7BAFE4FF0FF30F6E70000054841692D
:1023C00019B1006B18B1002070470120704702203E
:1023D00070470000180000202DE9F0412E4C002726
:1023E000206B40B1A069401CA061E06900B10127E9
:1023F0003846BDE8F081E668761CE66013D1606B74
:10240000006838B1502080F31188BFF34F8FBFF3BD
:102410006F8FFEE7606BA16B6163A063206A401C55
:102420002062FFF767FDA06ADFF87080864209D35B
:10243000606B006880B1606BC068C5686868864280
:102440000DD2A0622068C06A00EB800158F821001C
:102450000128CAD90127C8E74FF0FF30F1E7281D4E
:10246000FFF7EAFDA86A18B105F11800FFF7E4FDCF
:10247000E86A0121226981401143216100EB80015A
:1024800008EB8100291DFFF70FFEE86A2168C96A81
:102490008842CDD30127CBE718000020800100201F
:1024A0002DE9F0472C4D00242746286B38B1FFF763
:1024B00007FE286B401E2863286B40B146E0502081
:1024C00080F31188BFF34F8FBFF36F8FFEE7A968CA
:1024D000224E0120D1B3A6F1B40980463068E8B19C
:1024E000F068C46804F11800FFF7A6FD201DFFF78F
:1024F000A3FDE06A2A6908FA00F11143296100EBA3
:10250000800109EB8100211DFFF7CEFDE06A2968FB
:10251000C96A8842E2D3C5F81C80DFE70CB1FFF737
:10252000E9FCAC6944B14646FFF756FF00B1EE61E5
:10253000641EF9D10020A861E86938B10849012773
:1025400038070860BFF34F8FBFF36F8FFFF7D8FDD9
:102550003846BDE8F0870000180000203402002053
:1025600004ED00E0B0250008A516000800000000FA
:102570000000000080000000A4250008AD1600083F
:1025800000000000000000008000000000000000CB
:102590000000000001020304060708090000000013
:1025A000010203046D795461736B30320000000046
:1025B00064656661756C745461736B00DC2500089A
:1025C000000000207C000000841A00085826000843
:1025D0007C000020F4110000941A000800000000A4
:1025E00000000000010000001000000000000000DA
:1025F00000A24A04000000000000000000000000EB
:1026000000000000000000000000000000000000CA
:1026100000000000000000000000000000000000BA
:1026200000000000000000000000000000000000AA
:10263000000000000000000000000000000000009A
:10264000000000000000000000000000AAAAAAAAE2
:08265000000000000000000082
:04000005080000E906
:00000001FF
